{
  "fileName": "WLDataStorage.sol",
  "contractName": "WLContract",
  "source": "//pragma solidity v0.5.16;   //>=0.4.22 <0.6.0;\n\npragma solidity ^0.5.16;\n\nimport \"@openzeppelin/upgrades/contracts/Initializable.sol\";\n\n\n \ncontract WLContract is Initializable{\n    \n //WLDataStorage obj;\n\n address ownerAddr;\n\tuint devicesIndexCount=0; //counter for Devices.\n\tmapping(uint => mapping(address => address)) Devices;\n\tmapping(address => address) DeviceToOwnerMapping; //assuming a device and owner has one-to-one mapping.\n    address[] _devices;\n    address[] WhiteListAddrs; //conains accounts added by the owner as whitelisted account list.\n    mapping(address => uint) deviceCountPerAddress;\n    \n    modifier OnlyWhiteList {\n        require(IsWhiteList(msg.sender)); \n        _;\n    }\n \n /*\n constructor(address _wldataContract) public {\n    obj=WLDataStorage(_wldataContract) ;\n }\n */\n\n  function initialize() initializer public {\n       // name = _name;\n    }\n \n  modifier OnlyOwner {\n        require(msg.sender == getOwnerAddress());\n        _;\n    }\n\nfunction getOwnerAddress() public view returns (address) {\n        return ownerAddr;\n    }\n \n\n function setWhiteListAddress(address _Addr) public {     //OnlyOwner {\n        WhiteListAddrs.push(_Addr);\n    }\n    \n  function getWhiteListAddress() public view returns(address[] memory) {\n        return WhiteListAddrs;\n    }\n\n  function getDevices(address _mainAccnt) public returns(address[] memory) {\n        delete _devices;\n        _devices.length=0;\n        for(uint i=0;i< devicesIndexCount ;i++) {\n            _devices.push(Devices[i][_mainAccnt]);                   \n        }\n        return _devices;\n    }\n\nfunction setDevices(address _device,address _mainAccnt) public { \n      \n         require(deviceCountPerAddress[_mainAccnt] <=64);\n       \n         Devices[devicesIndexCount++][_mainAccnt] = _device; \n         DeviceToOwnerMapping[_device]=_mainAccnt;\n         devicesIndexCount++;\n         deviceCountPerAddress[_mainAccnt]++;\n    }\n\n   function removedWhiteListedAddress(address addr) public returns(bool) {\n        remove(addr);\n        return true;\n    }\n    \n function IsWhiteList(address addr) public view returns(bool) {\n     \n        bool isWL=false;\n        for(uint i=0;i<WhiteListAddrs.length;i++) {\n                if(WhiteListAddrs[i] == addr)\n                    isWL = true;\n            }\n   \n        return isWL;\n    }\n    \n function getDeviceOwner(address deviceAddr) public view returns(address) {\n        return DeviceToOwnerMapping[deviceAddr];\n    }\n    \n\nfunction remove(address _addrToRemove) private  returns(address[] memory) { //remove whitelisted addresses.\n        uint index=0;\n        \n        while (WhiteListAddrs[index] != _addrToRemove && index< WhiteListAddrs.length) {\n              index++;\n        }\n    \n        if (index >= WhiteListAddrs.length) return WhiteListAddrs;\n\n        for (uint i = index; i<WhiteListAddrs.length-1; i++){\n            WhiteListAddrs[i] = WhiteListAddrs[i+1];\n        }\n        delete WhiteListAddrs[WhiteListAddrs.length - 1];\n        WhiteListAddrs.length--;\n        \n        // removing the corresponding device/child also, if present.\n        if(DeviceToOwnerMapping[_addrToRemove] == address(0)) {\n        }\n        \n        else { \n             DeviceToOwnerMapping[_addrToRemove] = address(0);\n        }\n    }\n     \n }\n    \n   \n    ",
  "sourcePath": "contracts/WLDataStorage.sol",
  "abi": [
    {
      "constant": true,
      "inputs": [
        {
          "internalType": "address",
          "name": "addr",
          "type": "address"
        }
      ],
      "name": "IsWhiteList",
      "outputs": [
        {
          "internalType": "bool",
          "name": "",
          "type": "bool"
        }
      ],
      "payable": false,
      "stateMutability": "view",
      "type": "function"
    },
    {
      "constant": true,
      "inputs": [
        {
          "internalType": "address",
          "name": "deviceAddr",
          "type": "address"
        }
      ],
      "name": "getDeviceOwner",
      "outputs": [
        {
          "internalType": "address",
          "name": "",
          "type": "address"
        }
      ],
      "payable": false,
      "stateMutability": "view",
      "type": "function"
    },
    {
      "constant": false,
      "inputs": [
        {
          "internalType": "address",
          "name": "_mainAccnt",
          "type": "address"
        }
      ],
      "name": "getDevices",
      "outputs": [
        {
          "internalType": "address[]",
          "name": "",
          "type": "address[]"
        }
      ],
      "payable": false,
      "stateMutability": "nonpayable",
      "type": "function"
    },
    {
      "constant": true,
      "inputs": [],
      "name": "getOwnerAddress",
      "outputs": [
        {
          "internalType": "address",
          "name": "",
          "type": "address"
        }
      ],
      "payable": false,
      "stateMutability": "view",
      "type": "function"
    },
    {
      "constant": true,
      "inputs": [],
      "name": "getWhiteListAddress",
      "outputs": [
        {
          "internalType": "address[]",
          "name": "",
          "type": "address[]"
        }
      ],
      "payable": false,
      "stateMutability": "view",
      "type": "function"
    },
    {
      "constant": false,
      "inputs": [],
      "name": "initialize",
      "outputs": [],
      "payable": false,
      "stateMutability": "nonpayable",
      "type": "function"
    },
    {
      "constant": false,
      "inputs": [
        {
          "internalType": "address",
          "name": "addr",
          "type": "address"
        }
      ],
      "name": "removedWhiteListedAddress",
      "outputs": [
        {
          "internalType": "bool",
          "name": "",
          "type": "bool"
        }
      ],
      "payable": false,
      "stateMutability": "nonpayable",
      "type": "function"
    },
    {
      "constant": false,
      "inputs": [
        {
          "internalType": "address",
          "name": "_device",
          "type": "address"
        },
        {
          "internalType": "address",
          "name": "_mainAccnt",
          "type": "address"
        }
      ],
      "name": "setDevices",
      "outputs": [],
      "payable": false,
      "stateMutability": "nonpayable",
      "type": "function"
    },
    {
      "constant": false,
      "inputs": [
        {
          "internalType": "address",
          "name": "_Addr",
          "type": "address"
        }
      ],
      "name": "setWhiteListAddress",
      "outputs": [],
      "payable": false,
      "stateMutability": "nonpayable",
      "type": "function"
    }
  ],
  "bytecode": "0x6080604052600060345534801561001557600080fd5b50610ebc806100256000396000f3fe608060405234801561001057600080fd5b50600436106100935760003560e01c8063419788d311610066578063419788d31461021e578063459b23a4146102825780638129fc1c14610306578063adf872b014610310578063cbd1d1ff1461036c57610093565b806305bb4e5b146100985780630c4f65bd146100f757806327bbea3a14610141578063417b26e014610185575b600080fd5b6100a06103c8565b6040518080602001828103825283818151815260200191508051906020019060200280838360005b838110156100e35780820151818401526020810190506100c8565b505050509050019250505060405180910390f35b6100ff610456565b604051808273ffffffffffffffffffffffffffffffffffffffff1673ffffffffffffffffffffffffffffffffffffffff16815260200191505060405180910390f35b6101836004803603602081101561015757600080fd5b81019080803573ffffffffffffffffffffffffffffffffffffffff169060200190929190505050610480565b005b6101c76004803603602081101561019b57600080fd5b81019080803573ffffffffffffffffffffffffffffffffffffffff1690602001909291905050506104e9565b6040518080602001828103825283818151815260200191508051906020019060200280838360005b8381101561020a5780820151818401526020810190506101ef565b505050509050019250505060405180910390f35b6102806004803603604081101561023457600080fd5b81019080803573ffffffffffffffffffffffffffffffffffffffff169060200190929190803573ffffffffffffffffffffffffffffffffffffffff16906020019092919050505061068b565b005b6102c46004803603602081101561029857600080fd5b81019080803573ffffffffffffffffffffffffffffffffffffffff16906020019092919050505061085a565b604051808273ffffffffffffffffffffffffffffffffffffffff1673ffffffffffffffffffffffffffffffffffffffff16815260200191505060405180910390f35b61030e6108c3565b005b6103526004803603602081101561032657600080fd5b81019080803573ffffffffffffffffffffffffffffffffffffffff1690602001909291905050506109c2565b604051808215151515815260200191505060405180910390f35b6103ae6004803603602081101561038257600080fd5b81019080803573ffffffffffffffffffffffffffffffffffffffff1690602001909291905050506109d7565b604051808215151515815260200191505060405180910390f35b6060603880548060200260200160405190810160405280929190818152602001828054801561044c57602002820191906000526020600020905b8160009054906101000a900473ffffffffffffffffffffffffffffffffffffffff1673ffffffffffffffffffffffffffffffffffffffff1681526020019060010190808311610402575b5050505050905090565b6000603360009054906101000a900473ffffffffffffffffffffffffffffffffffffffff16905090565b60388190806001815401808255809150509060018203906000526020600020016000909192909190916101000a81548173ffffffffffffffffffffffffffffffffffffffff021916908373ffffffffffffffffffffffffffffffffffffffff1602179055505050565b6060603760006104f99190610de7565b60006037816105089190610e08565b5060008090505b6034548110156105fc5760376035600083815260200190815260200160002060008573ffffffffffffffffffffffffffffffffffffffff1673ffffffffffffffffffffffffffffffffffffffff16815260200190815260200160002060009054906101000a900473ffffffffffffffffffffffffffffffffffffffff1690806001815401808255809150509060018203906000526020600020016000909192909190916101000a81548173ffffffffffffffffffffffffffffffffffffffff021916908373ffffffffffffffffffffffffffffffffffffffff16021790555050808060010191505061050f565b50603780548060200260200160405190810160405280929190818152602001828054801561067f57602002820191906000526020600020905b8160009054906101000a900473ffffffffffffffffffffffffffffffffffffffff1673ffffffffffffffffffffffffffffffffffffffff1681526020019060010190808311610635575b50505050509050919050565b6040603960008373ffffffffffffffffffffffffffffffffffffffff1673ffffffffffffffffffffffffffffffffffffffff1681526020019081526020016000205411156106d857600080fd5b81603560006034600081548092919060010191905055815260200190815260200160002060008373ffffffffffffffffffffffffffffffffffffffff1673ffffffffffffffffffffffffffffffffffffffff16815260200190815260200160002060006101000a81548173ffffffffffffffffffffffffffffffffffffffff021916908373ffffffffffffffffffffffffffffffffffffffff16021790555080603660008473ffffffffffffffffffffffffffffffffffffffff1673ffffffffffffffffffffffffffffffffffffffff16815260200190815260200160002060006101000a81548173ffffffffffffffffffffffffffffffffffffffff021916908373ffffffffffffffffffffffffffffffffffffffff160217905550603460008154809291906001019190505550603960008273ffffffffffffffffffffffffffffffffffffffff1673ffffffffffffffffffffffffffffffffffffffff168152602001908152602001600020600081548092919060010191905055505050565b6000603660008373ffffffffffffffffffffffffffffffffffffffff1673ffffffffffffffffffffffffffffffffffffffff16815260200190815260200160002060009054906101000a900473ffffffffffffffffffffffffffffffffffffffff169050919050565b600060019054906101000a900460ff16806108e257506108e1610a78565b5b806108f957506000809054906101000a900460ff16155b61094e576040517f08c379a000000000000000000000000000000000000000000000000000000000815260040180806020018281038252602e815260200180610e5a602e913960400191505060405180910390fd5b60008060019054906101000a900460ff16159050801561099e576001600060016101000a81548160ff02191690831515021790555060016000806101000a81548160ff0219169083151502179055505b80156109bf5760008060016101000a81548160ff0219169083151502179055505b50565b60006109cd82610a8f565b5060019050919050565b6000806000905060008090505b603880549050811015610a6e578373ffffffffffffffffffffffffffffffffffffffff1660388281548110610a1557fe5b9060005260206000200160009054906101000a900473ffffffffffffffffffffffffffffffffffffffff1673ffffffffffffffffffffffffffffffffffffffff161415610a6157600191505b80806001019150506109e4565b5080915050919050565b6000803090506000813b9050600081149250505090565b606060008090505b8273ffffffffffffffffffffffffffffffffffffffff1660388281548110610abb57fe5b9060005260206000200160009054906101000a900473ffffffffffffffffffffffffffffffffffffffff1673ffffffffffffffffffffffffffffffffffffffff1614158015610b0e575060388054905081105b15610b20578080600101915050610a97565b6038805490508110610bbb576038805480602002602001604051908101604052809291908181526020018280548015610bae57602002820191906000526020600020905b8160009054906101000a900473ffffffffffffffffffffffffffffffffffffffff1673ffffffffffffffffffffffffffffffffffffffff1681526020019060010190808311610b64575b5050505050915050610de2565b60008190505b600160388054905003811015610c6e5760386001820181548110610be157fe5b9060005260206000200160009054906101000a900473ffffffffffffffffffffffffffffffffffffffff1660388281548110610c1957fe5b9060005260206000200160006101000a81548173ffffffffffffffffffffffffffffffffffffffff021916908373ffffffffffffffffffffffffffffffffffffffff1602179055508080600101915050610bc1565b50603860016038805490500381548110610c8457fe5b9060005260206000200160006101000a81549073ffffffffffffffffffffffffffffffffffffffff02191690556038805480919060019003610cc69190610e08565b50600073ffffffffffffffffffffffffffffffffffffffff16603660008573ffffffffffffffffffffffffffffffffffffffff1673ffffffffffffffffffffffffffffffffffffffff16815260200190815260200160002060009054906101000a900473ffffffffffffffffffffffffffffffffffffffff1673ffffffffffffffffffffffffffffffffffffffff161415610d6057610de0565b6000603660008573ffffffffffffffffffffffffffffffffffffffff1673ffffffffffffffffffffffffffffffffffffffff16815260200190815260200160002060006101000a81548173ffffffffffffffffffffffffffffffffffffffff021916908373ffffffffffffffffffffffffffffffffffffffff1602179055505b505b919050565b5080546000825590600052602060002090810190610e059190610e34565b50565b815481835581811115610e2f57818360005260206000209182019101610e2e9190610e34565b5b505050565b610e5691905b80821115610e52576000816000905550600101610e3a565b5090565b9056fe436f6e747261637420696e7374616e63652068617320616c7265616479206265656e20696e697469616c697a6564a265627a7a72315820ec46ac1ae1f931f380d432e905fac5e6ac3f09bd9b4c8e3988f88831d10a37fc64736f6c63430005100032",
  "compiler": {
    "name": "solc",
    "version": "0.5.16+commit.9c3226ce.Emscripten.clang",
    "optimizer": {
      "enabled": false,
      "runs": 200
    },
    "evmVersion": "petersburg"
  }
}